:08000000803102288731EF2F47
:10000E00F601F11F0B280C281328F009F109F00A4C
:10001E000319F10AF601F60AF31F162817282028ED
:10002E00F209F309F20A0319F30A0130F400740815
:10003E00F606F701F801700871040319272828281D
:10004E005728F501F50A34280130F035F10D890BEA
:10005E002C280130F4007408F507F11F37283828D2
:10006E002B280130F735F80D890B392871087302EA
:10007E00031D432870087202031C462847284C288B
:10008E007008F2027108F33B77140130F136F00C70
:10009E00890B4D280130F502031D562857283828A4
:1000AE00760803195B285C286128F709F809F70A16
:1000BE000319F80A7808F1007708F0000800883173
:1000CE00A3208031F00181308931272180316130C8
:1000DE00F2009030F3008831C4208031F001C1303D
:1000EE008931272180315230F2009030F30088316F
:1000FE00C42080318A312022803140010D18882899
:10010E0089288D288931E8218031DF288D189028A3
:10011E009128CA2889317B2180318831E3208031B2
:10012E00F0010130893127218031F001823089318F
:10013E00272180318D30F2009030F3008831C420B9
:10014E008031F001C0308931272180310030F2003A
:10015E009030F3008831C42080318E31CD2680312D
:10016E0006304001C9001330C800AD30890BBD28E0
:10017E00C80BBD28C90BBD280032F00101308931F2
:10018E0027218031DF280D1ECD28CE28DF280D0C2B
:10019E00890C0139C800C9015B084906031DD9281D
:1001AE005A0848060319DC28DD28DE28DF288128B6
:1001BE00080088319D208031F0018130893127215E
:1001CE0080316130F2009030F3008831C4208031EC
:1001DE00F001C1308931272180314330F200903057
:1001EE00F3008831C420803140015908A30058081B
:1001FE00A20083312B23803140018D180729082955
:10020E000C298931B02180315E290D180F29102952
:10021E00492989317B2180318831E3208031F001F9
:10022E000130893127218031F00181308931272138
:10023E0080317F30F2009030F3008831C42080315D
:10024E00F001C0308931272180311130F200903019
:10025E00F3008831C42080318F312227803106305F
:10026E004001C9001330C800AD30890B3C29C80BC2
:10027E003C29C90B3C290032F0010130893127217C
:10028E0080315E290D1E4C294D295E290D0C890CDD
:10029E000139C800C9015B084906031D58295A08CF
:1002AE00480603195B295C295D295E29FB28080095
:1002BE003E304001C2009930C1009930C0009A30E2
:1002CE00BF008C31492481313E304001C2004C3098
:1002DE00C100CC30C000CD30BF008A315B228131ED
:1002EE003E304001C2009930C1009930C0009A30B2
:1002FE00BF008C31492481313E304001C2004C3068
:10030E00C100CC30C000CD30BF008A315B228131BC
:10031E003E304001C2009930C1009930C0009A3081
:10032E00BF008C31492481313F304001C200003082
:10033E00C1000030C0000030BF008A315B22813125
:10034E003E304001C2004C30C100CC30C000CD3038
:10035E00BF008C31952481313E304001C2004C30BB
:10036E00C100CC30C000CD30BF008C31492481316A
:10037E003E304001C2009930C1009930C0009A3021
:10038E00BF008A315B2281313E304001C200CC3049
:10039E00C100CC30C000CD30BF008C31E52481319E
:1003AE003E304001C2009930C1009930C0009A30F1
:1003BE00BF008A315B2281313E304001C200CC3019
:1003CE00C100CC30C000CD30BF008C31492481310A
:1003DE0008003F304001C2000030C1000030C000B4
:1003EE000030BF008C31952481313E304001C20077
:1003FE009930C1009930C0009A30BF008A315B221B
:10040E0081313F304001C2000030C1000030C000D9
:10041E000030BF008C31952481313E304001C20046
:10042E009930C1009930C0009A30BF008A315B22EA
:10043E0081313E304001C2008030C1000030C0002A
:10044E000030BF008D31352581313E304001C20074
:10045E008030C1000030C0000030BF008A315B2206
:10046E0081313E304001C2008030C1000030C000FA
:10047E000030BF008D31352581313E304001C20044
:10048E008030C1000030C0000030BF008D318525A6
:10049E0081313E304001C2008030C1000030C000CA
:1004AE000030BF008A315B2281313E304001C200F4
:1004BE008030C1000030C0000030BF008D31852576
:1004CE0081313F304001C2000030C1000030C00019
:1004DE000030BF008C31492481313F304001C200D1
:1004EE001930C1009930C0009A30BF008C31E5241C
:1004FE00813108007E01B801C301CE01D901E401AA
:10050E00C03040019100F730920093010F309400FB
:10051E00FC30950089314D2182310B2B0B2B0D1A9E
:10052E00992A9A2A9B2A232B0D1D9E2A9F2AF02A4E
:10053E000130DA000030DB0058085904031DA82AE8
:10054E00A92AAD2A8031E02082310B2B5908803A3E
:10055E00CA0083304A02031DB62ADE305802031841
:10056E00B92ABA2ABE2A8B31FF2382310B2B4001C6
:10057E005908803ACA0083304A02031DC82ADE3069
:10058E005802031CCB2ACC2ADE2A40015908803A95
:10059E00CA0083304A02031DD62AE83058020318D7
:1005AE00D92ADA2ADE2A8B31B52382310B2B400170
:1005BE005908803ACA0083304A02031DE82AE830FF
:1005CE005802031CEB2AEC2A952A803166208231D0
:1005DE000B2B0D19F32AF42A0B2BDA01DB01580829
:1005EE005904031DFB2AFC2AFD2AA92A5908803A20
:1005FE00CA0080304A02031D062B01305802031C2C
:10060E00092B0A2B0B2BBA2A40010D1A0F2B102B7C
:10061E00962A232B0D1E142B152B162B0B2B8C1100
:10062E000C118C100C108D0189317B218231F0015F
:10063E00013089312721823140010D1E272B282BB5
:10064E00112B0B2B803102284B3086000030870097
:10065E0025308400003085000A304001A4001600C9
:10066E001A00A40B362BE830F0000330F1002308FB
:10067E00F3002208F2008031072083317108400117
:10068E00B0007008AF000A30F9000030FA00643094
:10069E00F0000030F1002308F3002208F200803150
:1006AE00072083317108FC007008FB008E3179261B
:1006BE0083317A084001B2007908B1000A30F9009E
:1006CE000030FA000A30F0000030F1002308F30089
:1006DE002208F2008031072083317108FC00700877
:1006EE00FB008E31792683317A084001B4007908F7
:1006FE00B3000A30F9000030FA002308FC0022088B
:10070E00FB008E31792683317A084001B6007908D4
:10071E00B5008C160C162308803AA40083302402F0
:10072E00031D9B2BE830220203189E2B9F2BA32B1D
:10073E00FF3040018E00AA2B40012F08253E860077
:10074E00870101088E0007304001A4007D30890B1F
:10075E00AE2BA40BAE2B40018C160C122308803A44
:10076E00A40080302402031DBE2B64302202031825
:10077E00C12BC22BC62BFF3040018E00CD2B40016A
:10078E003108253E8600870101088E0007304001A2
:10079E00A4007D30890BD12BA40BD12B40018C12E0
:1007AE000C162308803AA40080302402031DE12B8E
:1007BE000A3022020318E42BE52BE92BFF3040010F
:1007CE008E00F02B40013308253E8600870101087C
:1007DE008E0007304001A4007D30890BF42BA40B52
:1007EE00F42B40018C120C123508253E8600870131
:1007FE0001088E0007304001A4007D30890B052CC6
:10080E00A40B052C0800770880394001A400773529
:10081E00AB00F61F132C142C152C2B142B080319BC
:10082E00192C1A2C2A2C2B0A031D1E2C1F2C272C9C
:10083E000030F7000030F6000030F5000030F40014
:10084E00F617F701322C0030F7000030F6000030BA
:10085E00F5000030F40073088039F8007808A4061B
:10086E007335AC00F21F3C2C3D2C3E2C2C142C0866
:10087E000319422C432C532C2C0A031D472C482CB5
:10088E00502C0030F3000030F2000030F100003048
:10089E00F000F217F3015B2C0030F3000030F20091
:1008AE000030F1000030F00073087204710470041F
:1008BE00031D622C632C7C2C0030F7000030F600F8
:1008CE000030F5000030F4008030F6047F30F7047D
:1008DE002408F8007808F7047708F3007608F20089
:1008EE007508F1007408F000B32D2B08031D802C41
:1008FE00812C8A2C0030F3000030F2000030F10021
:10090E000030F000B32D2B08F800F9017908FB0038
:10091E002C087802FA00031CFB037A087F3EA50020
:10092E0000307B3DA6007708A3007608A20075086C
:10093E00A1007408A0000030F7000030F60000306F
:10094E00F5000030F4000030AA000030A90000309D
:10095E00A8000030A700AC01F22C2C080319B82C0B
:10096E00B92CD32C0130A035A10DA20DA30D890BEE
:10097E00BA2C0130F435F50DF60DF70D890BC12C9F
:10098E00AA1FCA2CCB2CCC2C74140130A735A80D61
:10099E00A90DAA0D890BCD2C73082302031DE12C82
:1009AE0072082202031DE12C71082102031DE12CA5
:1009BE0070082002031CE42CE52CEE2C2A1770087C
:1009CE00A0027108A13B7208A23B7308A33B013041
:1009DE00F8007808AC071A302C02031CF72CF82C00
:1009EE00B42C23082204210420040319FF2C002D0B
:1009FE00192D2714192D0130F435F50DF60DF70DBF
:100A0E00890B032DAA1F0C2D0D2D0E2D74140130E4
:100A1E00A735A80DA90DAA0D890B0F2DFF30A5071F
:100A2E00FF30A63DF61F1C2D1D2D022DAC01AA1F59
:100A3E00212D222D3E2DFF302705F800FF302805F1
:100A4E00F900FF302905FA007F302A05FB007B08EC
:100A5E007A04790478040319352D362D392DAC011D
:100A6E00AC0A3E2D741C3C2D3D2D3E2D362D2C08F2
:100A7E000319422D432D6B2D0130F4070030F53D47
:100A8E000030F63D0030F73D771C4E2D4F2D6B2D6F
:100A9E007408F8007508F9007608FA007708FB006C
:100AAE000130FC00FB37FA0CF90CF80CFC0B592D3D
:100ABE007B08F7007A08F6007908F5007808F4004C
:100ACE000130A5070030A63D2608803AF800803098
:100ADE007802031D742DFF302502031C772D782D0F
:100AEE00852DFF304001A5000030A6000030F70034
:100AFE000030F6000030F5000030F400400126080A
:100B0E00803AF80080307802031D8F2D01302502C7
:100B1E000318922D932D9F2D4001A501A6010030A3
:100B2E00F7000030F6000030F5000030F400A401AC
:100B3E0040012508AB002B1CA52DA62DA82DF617C0
:100B4E00AC2D7F30F8007808F6052B36F700240818
:100B5E00F8007808F704732C080040012308803948
:100B6E00A8002335AE00A21FBD2DBE2DBF2D2E1405
:100B7E002E080319C32DC42DD32D2E0A031DC82DE7
:100B8E00C92DD12D0030A3000030A2000030A100ED
:100B9E000030A000A217DB2D0030A3000030A20011
:100BAE000030A1000030A00027088039F900790834
:100BBE00A8062735AD00A61FE52DE62DE72D2D1431
:100BCE002D080319EB2DEC2DFB2D2D0A031DF02DF9
:100BDE00F12DF92D0030A7000030A6000030A50041
:100BEE000030A400A617032E0030A7000030A60088
:100BFE000030A5000030A4002D080319072E082E82
:100C0E000D2E2E08031D0C2E0D2E162E0030A300B9
:100C1E000030A2000030A1000030A000EE2F20080E
:100C2E00F000260889310421853171084001B40095
:100C3E007008B3003308F900FA01FB01FC017C08CF
:100C4E00AC007B08AB007A08AA007908A90034082A
:100C5E00F900FA01FB01FC017C08B2007B08B1002F
:100C6E007A08B0007908AF002108F0002508893114
:100C7E000421853171084001B4007008B3003308B7
:100C8E00F900FA01FB01FC017908A9077A08AA3DCF
:100C9E007B08AB3D7C08AC3D3408F900FA01FB0142
:100CAE00FC017908AF077A08B03D7B08B13D7C089E
:100CBE00B23D2208F00024088931042185317108E3
:100CCE004001B4007008B3003308F900FA01FB01CB
:100CDE00FC017908A9077A08AA3D7B08AB3D7C0880
:100CEE00AC3D3408F900FA01FB01FC017908AF07AD
:100CFE007A08B03D7B08B13D7C08B23D0830A9357D
:100D0E00AA0DAB0DAC0D890B862E2108F000240820
:100D1E0089310421853171084001B4007008B30097
:100D2E003308A9073408AA3D0030AB3DAC3D20087E
:100D3E00F000250889310421853171084001B40085
:100D4E007008B3003308A9073408AA3D0030AB3D44
:100D5E00AC3D0830A935AA0DAB0DAC0D890BB12EEB
:100D6E002008F000240889310421853171084001E2
:100D7E00B4007008B3003308A9073408AA3D003048
:100D8E00AB3DAC3D2108F0002608893104218531A8
:100D9E0071084001B4007008B3003308AF0734087F
:100DAE00B03D0030B13DB23D2208F000250889313A
:100DBE000421853171084001B4007008B300330876
:100DCE00AF073408B03D0030B13DB23D2208F0000F
:100DDE00260889310421853171084001B40070085C
:100DEE00B3003308F9003408FA00FB01FC010830A7
:100DFE00F935FA0DFB0DFC0D890BFF2E7908AF07A7
:100E0E007A08B03D7B08B13D7C08B23D2908F90057
:100E1E002A08FA002B08FB002C08FC001830FC36C0
:100E2E00FB0CFA0CF90C890B162F7908AF077A0810
:100E3E00B03D7B08B13D7C08B23D0830A935AA0D06
:100E4E00AB0DAC0D890B252F2E082D07F900FA01DD
:100E5E00FA0D7908823EB300FF307A3DB4004E2F72
:100E6E000130AF35B00DB10DB20D890B382FAC1F5F
:100E7E00412F422F432F2F140130A935AA0DAB0D50
:100E8E00AC0D890B442FFF30B307FF30B43DB11FBB
:100E9E00512F522F372FAD01AC1F562F572F732FB7
:100EAE00FF302905F900FF302A05FA00FF302B0527
:100EBE00FB007F302C05FC007C087B047A0479044F
:100ECE0003196A2F6B2F6E2FAD01AD0A732F2F1CD6
:100EDE00712F722F732F6B2F2D080319772F782FE9
:100EEE00A02F0130AF070030B03D0030B13D0030D3
:100EFE00B23D321C832F842FA02F2F08F90030080B
:100F0E00FA003108FB003208FC000130FD00FC370E
:100F1E00FB0CFA0CF90CFD0B8E2F7C08B2007B0833
:100F2E00B1007A08B0007908AF000130B307003085
:100F3E00B43D3408803AF90080307902031DA92FA0
:100F4E00FF303302031CAC2FAD2FB72F7F30400183
:100F5E00B2008030B1000030B0000030AF00E22FA0
:100F6E0040013408803AF90080307902031DC12F08
:100F7E00013033020318C42FC52FD02F003040018B
:100F8E00B2000030B1000030B0000030AF00A80158
:100F9E00E22F40013308AE00FF30AF05FF30B00541
:100FAE007F30B1050030B2052E1CDE2FDF2FE02F73
:100FBE00B1172E36B2002808F9007908B2043208AB
:100FCE00A3003108A2003008A1002F08A0000800DD
:100FDE00B5308400883085004B30860000308700A5
:100FEE000F308831AF208731DA01DB0140018231C9
:020FFE00812A46
:10113A0040018C110C118C100C10080040018C1508
:10114A000C158C140C14080040018C150C118C1011
:10115A000C140800FE0012001E00FE0BB02800341A
:10116A00C034F934A434B034993492348234F83423
:10117A00803490348E34C134C7340F342734F501A7
:10118A00F601D728F001F00A72087507840073087F
:10119A00763D850000088931272188310130F5071D
:1011AA000030F63D7208750784007308763D8500A5
:1011BA001200031DE128E228C728080040018C110B
:1011CA000C118C100C100330F1008A30F0005630EC
:1011DA00890BED28F00BED28F10BED2840018C1559
:1011EA000C158C140C140330F1008A30F0005630C0
:1011FA00890BFD28F00BFD28F10BFD280800F800EB
:10120A00F401F5017008F200F3017208F6007308A0
:10121A00F700781C1129122916297608F40777088D
:10122A00F53D0130F635F70D890B17290310F80C37
:10123A007808031D212922290E297508F10074084E
:10124A00F0000800F100700C4001031C9010031814
:10125A00901471088F001014C8300032890B32299B
:10126A0040011010C8300032890B3829F10EF030D5
:10127A00F105710840018F001014C8300032890B43
:10128A00432940011010C8300032890B492908004F
:10129A001430F2007A30890B5029F20B5029F001F0
:1012AA0003308931272189310730F2007D30890BDB
:1012BA005C29F20B5C290000F001023089312721F8
:1012CA008931F0012830893127218931F0010C3028
:1012DA00893127218931F001063089312721893165
:1012EA00F0010130893127218931080040018C162B
:1012FA000C16FF308E000730F0007D30890B8329F1
:10130A00F00B8329000040018C160C12FF308E006E
:10131A000730F0007D30890B9029F00B90290000EE
:10132A0040018C120C16FF308E000730F0007D3021
:10133A00890B9D29F00B9D29000040018C120C128B
:10134A00FF308E000730F0007D30890BAA29F00BA0
:10135A00AA290000080089317B2189318A31992222
:10136A008931F0010130893127218931F001843036
:10137A00893127218931B030F2009030F300883169
:10138A00C4208931F001C0308931272189312230C6
:10139A00F2009030F3008831C420893181315F2115
:1013AA008931F00101308931272189310130400129
:1013BA00D8070030D93D5908A3005808A200833144
:1013CA002B238931080089317B2189318A31DF2237
:1013DA008931F0010130893127218931F0018330C7
:1013EA008931272189319A30F2009030F30088310F
:1013FA00C4208931F001C130893127218931703007
:10140A00F2009030F3008831C42089318131F02113
:10141A008931F0010130893127218931FF304001BA
:10142A00D807FF30D93D5908A3005808A2008331D4
:10143A002B238931080040015508F1005608F200B3
:10144A005708F3008C160C1671088E000730F0004E
:10145A007D30890B2E2AF00B2E2A000040018C16B3
:10146A000C1272088E000730F0007D30890B3B2A7F
:10147A00F00B3B2A000040018C120C1673088E00F8
:10148A000730F0007D30890B482AF00B482A00000B
:10149A0040018C120C1273088E000730F0007D3068
:1014AA00890B552AF00B552A000008004001420812
:1014BA00A7004108A6004008A5003F08A40049303B
:1014CA00A3007430A2002430A1000030A0008531AE
:1014DA00B4258A3140012308B8002208B700210840
:1014EA00B6002008B5008F318F278A3140013608AF
:1014FA00C5003508C4008D11C601C7018A2A00003B
:10150A0001304001C6070030C73D4708803AC30092
:10151A004508803A4302031D942A44084602031CE4
:10152A00972A982A842A080040018C150C118C10DD
:10153A000C100230F1004530F000AA30890BA32AC2
:10154A00F00BA32AF10BA32A40018C110C158C1065
:10155A000C100230F1004530F000AA30890BB32A92
:10156A00F00BB32AF10BB32A40018C110C118C1425
:10157A000C100230F1004530F000AA30890BC32A62
:10158A00F00BC32AF10BC32A40018C110C118C10E9
:10159A000C140230F1004530F000AA30890BD32A2E
:1015AA00F00BD32AF10BD32A40018C110C118C10A9
:1015BA000C10080040018C110C118C100C14033013
:1015CA00F1008A30F0005630890BE92AF00BE92A3B
:1015DA00F10BE92A40018C110C118C140C10033008
:1015EA00F1008A30F0005630890BF92AF00BF92AFB
:1015FA00F10BF92A40018C110C158C100C100330D8
:10160A00F1008A30F0005630890B092BF00B092BB8
:10161A00F10B092B40018C150C118C100C100330A6
:10162A00F1008A30F0005630890B192BF00B192B78
:10163A00F10B192B40018C110C118C100C100800A5
:10164A0040014208F7004108F6004008F5003F084B
:10165A00F4003B30F3000930F200A030F1002730EB
:10166A00F00084310A248B3173084001B8007208F3
:10167A00B7007108B6007008B5008F318F278B311B
:10168A0040013608C5003508C400C601C7015E2BF3
:10169A0040018D15D2300032890B502B40018D113B
:1016AA00D2300032890B562B01304001C607003078
:1016BA00C73D4708803AC3004508803A4302031DE4
:1016CA00682B44084602031C6B2B6C2B4D2B08001D
:1016DA0040014208F7004108F6004008F5003F08BB
:1016EA00F4003B30F3000330F2001230F1006F30A7
:1016FA00F00084310A248B3173084001B800720863
:10170A00B7007108B6007008B5008F318F278B318A
:10171A0040013608C5003508C400C601C701A62B1A
:10172A0040018D15C8300032890B982B40018D116C
:10173A00C8300032890B9E2B01304001C6070030A9
:10174A00C73D4708803AC3004508803A4302031D53
:10175A00B02B44084602031CB32BB42B952B08006C
:10176A008831A9208B31F0018330893127218B31CF
:10177A00A530F2009030F3008831C4208B31F0019B
:10178A00C130893127218B313330F2009030F30098
:10179A008831C4208B3140015908A3005808A2009F
:1017AA0083312B238B3140018D18DC2BDD2BE12B70
:1017BA008931B0218B31FE2B0D18E42BE52BE92B57
:1017CA008931E8218B31FE2B0D1EEC2BED2BFE2BE4
:1017DA000D0C890C0139C800C9015B084906031DB3
:1017EA00F82B5A0848060319FB2BFC2BFD2BFE2B62
:1017FA00D02B080088319D208B31F001813089314E
:10180A0027218B316130F2009030F3008831C420F7
:10181A008B31F001C130893127218B314330F200FD
:10182A009030F3008831C4208B3140015908A3005D
:10183A005808A20083312B238B3140018D18262CA6
:10184A00272C2B2C8931B0218B31482C0D182E2CAA
:10185A002F2C332C8931E8218B31482C0D1E362C44
:10186A00372C482C0D0C890C0139C800C9015B08BA
:10187A004906031D422C5A0848060319452C462CD2
:10188A00472C482C1A2C080040014208F70041084E
:10189A00F6004008F5003F08F4003B30F3004430FE
:1018AA00F2009B30F100A630F00084310A248C311A
:1018BA0073084001B8007208B7007108B6007008D2
:1018CA00B5008F318F278C3140013608C5003508A5
:1018DA00C400C601C701862C40018D15D6300032DE
:1018EA000032890B742C003240018D11D63000323F
:1018FA000032890B7C2C003201304001C6070030CF
:10190A00C73D4708803AC3004508803A4302031D91
:10191A00902C44084602031C932C942C712C08002A
:10192A0040014208F7004108F6004008F5003F0868
:10193A00F4003B30F3007F30F2009730F10024309E
:10194A00F00084310A248C3173084001B80072080F
:10195A00B7007108B6007008B5008F318F278C3137
:10196A0040013608C5003508C400C601C701D62C97
:10197A0040018D1503304001C3008730890BC32C09
:10198A00C30BC32C40018D1103304001C3008730C3
:10199A00890BCD2CC30BCD2C01304001C60700307A
:1019AA00C73D4708803AC3004508803A4302031DF1
:1019BA00E02C44084602031CE32CE42CBD2C08004E
:1019CA0040014208F7004108F6004008F5003F08C8
:1019DA00F4003B30F3002A30F2006430F100C330E7
:1019EA00F00084310A248C3173084001B80072086F
:1019FA00B7007108B6007008B5008F318F278C3197
:101A0A0040013608C5003508C400C601C701262DA5
:101A1A0040018D15B93000320032890B102D003289
:101A2A000032000040018D11B93000320032890BBA
:101A3A001A2D00320032000001304001C607003082
:101A4A00C73D4708803AC3004508803A4302031D50
:101A5A00302D44084602031C332D342D0D2D080069
:101A6A0040014208F7004108F6004008F5003F0827
:101A7A00F4003B30F300FC30F2005030F100483003
:101A8A00F00084310A248D3173084001B8007208CD
:101A9A00B7007108B6007008B5008F318F278D31F5
:101AAA0040013608C5003508C400C601C701762DB5
:101ABA0040018D1505304001C300FF30890B632DAD
:101ACA00C30B632D40018D1105304001C300FF3067
:101ADA00890B6D2DC30B6D2D01304001C6070030F7
:101AEA00C73D4708803AC3004508803A4302031DB0
:101AFA00802D44084602031C832D842D5D2D080089
:101B0A0040014208F7004108F6004008F5003F0886
:101B1A00F4003B30F3005E30F200D230F10089303D
:101B2A00F00084310A248D3173084001B80072082C
:101B3A00B7007108B6007008B5008F318F278D3154
:101B4A0040013608C5003508C400C601C701C62DC4
:101B5A0040018D15F23000320032890BB02D00326F
:101B6A000032003240018D11F23000320032890B0E
:101B7A00BA2D00320032003201304001C60700306F
:101B8A00C73D4708803AC3004508803A4302031D0F
:101B9A00D02D44084602031CD32DD42DAD2D0800A8
:101BAA0040014208F7004108F6004008F5003F08E6
:101BBA00F4003B30F3008C30F200E730F1000430DF
:101BCA00F00084310A248D3173084001B80072088C
:101BDA00B7007108B6007008B5008F318F278D31B4
:101BEA0040013608C5003508C400C601C701182ED1
:101BFA0040018D1503304001C300C930890B032E03
:101C0A00C30B032E003240018D1103304001C30083
:101C1A00C930890B0E2EC30B0E2E00320130400143
:101C2A00C6070030C73D4708803AC3004508803AD6
:101C3A004302031D222E44084602031C252E262E8B
:101C4A00FD2D080040014208F7004108F60040084F
:101C5A00F5003F08F4003B30F3008630F2005930BB
:101C6A00F1004B30F00084310A248E3173084001B0
:101C7A00B8007208B7007108B6007008B5008F3155
:101C8A008F278E3140013608C5003508C400C601C9
:101C9A00C7016A2E40018D1503304001C300A830E8
:101CAA00890B552EC30B552E000040018D110330B0
:101CBA004001C300A830890B602EC30B602E0000C0
:101CCA0001304001C6070030C73D4708803AC300CB
:101CDA004508803A4302031D742E44084602031C39
:101CEA00772E782E4F2E08004001A101FC1F7E2E70
:101CFA007F2E862EFB09FC09FB0A0319FC0AA101A7
:101D0A00A10AFA1F892E8A2E8F2EF909FA09F90AD1
:101D1A000319FA0A79087A040319942E952EBE2E0D
:101D2A00A001A00AA12E0130F935FA0D890B992ECE
:101D3A000130FD007D08A007FA1FA42EA52E982EBB
:101D4A007A087C02031DAB2E79087B02031CAE2E97
:101D5A00AF2EB32E7908FB027A08FC3B0130FA3623
:101D6A00F90C890BB42E0130A002031DBD2EBE2E24
:101D7A00A52E21080319C22EC32EC82EFB09FC0961
:101D8A00FB0A0319FC0A7C08FA007B08F900080020
:101D9A003F304001C2000030C1000030C0000030B6
:101DAA00BF008C31E5248E313F304001C200003043
:101DBA00C1000030C0000030BF008B3125238E31B6
:101DCA003F304001C2000030C1000030C000003086
:101DDA00BF008B316D238E313F304001C20000308D
:101DEA00C1000030C0000030BF008C3195248E3114
:101DFA003E304001C2004C30C100CC30C000CD3072
:101E0A00BF008A315B228E313E304001C200CC30A5
:101E1A00C100CC30C000CD30BF008D3185258E3158
:101E2A003E304001C2009930C1009930C0009A305A
:101E3A00BF008C3149248E3108003E304001C20077
:101E4A009930C1009930C0009A30BF008D313525D4
:101E5A008F313E304001C2009930C1009930C00034
:101E6A009A30BF008C3195248F313E304001C20038
:101E7A009930C1009930C0009A30BF008D31D52504
:101E8A008F313E304001C2009930C1009930C00004
:101E9A009A30BF008B3125238F313E304001C2007A
:101EAA001930C1009930C0009A30BF008E31272600
:101EBA008F313E304001C2001930C1009930C00054
:101ECA009A30BF008B316D238F313E304001C20002
:101EDA004C30C100CC30C000CD30BF008A315B220B
:101EEA008F313E304001C2001930C1009930C00024
:101EFA009A30BF008B316D238F313E304001C200D2
:101F0A009930C1009930C0009A30BF008C31492401
:101F1A008F31080003104001370D380DBE003E080E
:101F2A00031D982F992FA22F0030B8000030B70058
:101F3A000030B6000030B500FF2F3508B90036086A
:101F4A00BA003708BB003808BC001F30BC36BB0CCF
:101F5A00BA0CB90C890BAB2F3908BD00B717FF3083
:101F6A00B505FF30B605FF30B7050030B805963025
:101F7A00BE02BE1FC12FC22FDA2F3E08803A973EFB
:101F8A000318C82FC92FCA2F992F0130B836B70C9A
:101F9A00B60CB50C890BCB2F0130B9003908BE0736
:101FAA00031DD82FD92FCA2FEF2F20303E02031C32
:101FBA00DF2FE02FEA2F992F0130B535B60DB70D77
:101FCA00B80D890BE22F0130BE023E08031DEE2F29
:101FDA00EF2FE12F3D080319F32FF42FFF2FB50937
:101FEA00B609B709B809B50A0319B60A0319B70A2F
:101FFA000319B80A08004E346F34203465346E343D
:10200A00743472347934203461346C346C346F34FF
:10201A00773465346434003445347834693474343C
:10202A00203475346E3461347634613469346C34F6
:10203A00613462346C34653400347E3445346E3431
:10204A006A346F3479342034733468346F347034BA
:10205A00703469346E3467347E34003469347334CE
:10206A00203461346C346D346F34733474342034F6
:10207A00663475346C346C342E3400347C34203439
:10208A002034203420344D3461346C346C342034A0
:10209A002034203420347C3400347C3420342034FE
:1020AA00693473342034663475346C346C342134B6
:1020BA00203420347C3400347C342034533470345B
:1020CA00723469346E346734733469346434653411
:1020DA0020347C3400347E345334653465342034FF
:1020EA0079346F347534203473346F346F346E340A
:1020FA007E3400344D3461346C346C3420346934A9
:10210A007334203465346D34703474347934003463
:10211A004D3461346C346C34203469347334203473
:10212A00663475346C346C34003454346834613435
:10213A006E346B34203479346F347534213400347E
:10214A0053347034723469346E3467347334693496
:10215A00643465340034573465346C3463346F3412
:08216A006D34653421340034AA
:020000040001F9
:08000000FF3FFF3FFF3FFF3F00
:0A000E00FF3FFF3F9F3FFF1FFF3F32
:00000001FF
